:100000000C942A000C945A010C9494010C9447000F
:100010000C9447000C9447000C9447000C94470044
:100020000C9447000C9447000C9447000C94470034
:100030000C9447000C9447000C9447000C94470024
:100040000C9447000C9447000C9447000C94470014
:100050000C94470011241FBECFE5D8E0DEBFCDBF12
:1000600010E0A0E6B0E0ECE5F5E002C005900D92EE
:10007000AC36B107D9F720E0ACE6B0E001C01D9284
:10008000A137B207E1F70E9432020C94AC020C9443
:1000900000004130A1F5813089F028F08230C9F0AC
:1000A000833011F108952AB381E090E002C0880FF7
:1000B000991F6A95E2F7822B8ABB089527B381E0E6
:1000C00090E002C0880F991F6A95E2F7822B87BBE8
:1000D000089524B381E090E002C0880F991F6A95CB
:1000E000E2F7822B84BB089521B381E090E002C047
:1000F000880F991F6A95E2F7822B81BB0895411101
:1001000037C0813091F028F08230D9F0833029F166
:1001100008952AB381E090E002C0880F991F6A9584
:10012000E2F7809582238ABB089527B381E090E0AF
:1001300002C0880F991F6A95E2F78095822387BBDA
:10014000089524B381E090E002C0880F991F6A955A
:10015000E2F78095822384BB089521B381E090E08B
:1001600002C0880F991F6A95E2F78095822381BBB0
:1001700008954130A1F5813089F028F08230C9F02E
:10018000833011F108952BB381E090E002C0880F15
:10019000991F6A95E2F7822B8BBB089528B381E003
:1001A00090E002C0880F991F6A95E2F7822B88BB06
:1001B000089525B381E090E002C0880F991F6A95E9
:1001C000E2F7822B85BB089522B381E090E002C064
:1001D000880F991F6A95E2F7822B82BB089541111F
:1001E00037C0813091F028F08230D9F0833029F186
:1001F00008952BB381E090E002C0880F991F6A95A3
:10020000E2F7809582238BBB089528B381E090E0CC
:1002100002C0880F991F6A95E2F78095822388BBF8
:10022000089525B381E090E002C0880F991F6A9578
:10023000E2F78095822385BB089522B381E090E0A8
:1002400002C0880F991F6A95E2F78095822382BBCE
:100250000895813041F028F0823039F0833039F050
:1002600008956ABB089567BB089564BB089561BB98
:100270000895813041F028F0823039F0833039F030
:1002800008956BBB089568BB089565BB089562BB74
:10029000089585B7826085BF85B78E7F85BF8BB790
:1002A00080648BBF0895009721F090936D00809338
:1002B0006C0008951F920F920FB60F9211242F9386
:1002C0003F934F935F936F937F938F939F93AF93DE
:1002D000BF93EF93FF93E0916C00F0916D00309726
:1002E00009F00995FF91EF91BF91AF919F918F9187
:1002F0007F916F915F914F913F912F910F900FBE22
:100300000F901F90189585B7886085BF85B78B7F44
:1003100085BF8BB780688BBF0895009721F09093BD
:100320006F0080936E0008951F920F920FB60F9288
:1003300011242F933F934F935F936F937F938F93EA
:100340009F93AF93BF93EF93FF93E0916E00F09173
:100350006F00309709F00995FF91EF91BF91AF9130
:100360009F918F917F916F915F914F913F912F91CD
:100370000F900FBE0F901F901895CF93C82F40E09D
:1003800061E082E00E94B9006C2F81E00E94390197
:1003900041E062E082E00E94B9008FE99FE00197AE
:1003A000F1F700C0000040E062E082E00E94B90086
:1003B000CF910895CF93C82F41E061E082E00E9481
:1003C000B9006C2F81E00E94390141E062E082E0D7
:1003D0000E94B9008FE99FE00197F1F700C000008B
:1003E00040E062E082E00E94B900CF9108956FEF93
:1003F00081E00E94290141E061E082E00E94490021
:1004000041E062E082E00E9449002FEF89EF90E036
:10041000215080409040E1F700C0000088E30E9436
:10042000BD018CE00E94BD0181E00E94BD010895E4
:100430001092600008959091700081E0911180E029
:100440008093700080917000882331F041E060E07B
:1004500082E00E94B900089540E060E082E00E94DE
:10046000B900089541E060E082E00E9449000E94E6
:100470009C020E94F70140E062E083E00E94490094
:1004800041E062E083E00E94B90040E063E083E085
:100490000E94490041E063E083E00E94B9008BE1E3
:1004A00092E00E94530188E192E00E948D010E9437
:1004B00049010E9483018FB780688FBF80916000DF
:1004C000811103C081E080936000809160000E94F0
:1004D000A10281E00E94BD0183E40E94DA018FE65F
:1004E0000E94DA0185E70E94DA018EE60E94DA01B5
:1004F00084E70E94DA018AE30E94DA0180E20E9426
:10050000DA0180916000805D0E94DA012FEF89E6B8
:1005100098E1215080409040E1F700C000008091B8
:1005200060008F5F80936000809160008A3030F2BD
:1005300081E080936000C2CF6FEF80E00E942901CC
:1005400008958A3040F4E82FF0E0EF59FF4F6081C2
:0C05500080E00E9439010895F894FFCF6C
:0C055C00013F065B4F666D7D077F6F005E
:00000001FF
