S00F00005461736B2031362E73726563FB
S11300000C942A000C943F000C943F000C943F0085
S11300100C943F000C943F000C943F000C943F0060
S11300200C943F000C943F000C943F000C943F0050
S11300300C943F000C943F000C943F000C943F0040
S11300400C943F000C943F000C943F000C943F0030
S11300500C943F0011241FBECFE5D8E0DEBFCDBF16
S113006010E0A0E6B0E0EEE1F4E002C005900D92ED
S1130070AA36B107D9F70E9421010C940D020C9401
S113008000004130A1F5813089F028F08230C9F0B8
S1130090833011F108952AB381E090E002C0880F03
S11300A0991F6A95E2F7822B8ABB089527B381E0F2
S11300B090E002C0880F991F6A95E2F7822B87BBF4
S11300C0089524B381E090E002C0880F991F6A95D7
S11300D0E2F7822B84BB089521B381E090E002C053
S11300E0880F991F6A95E2F7822B81BB089541110D
S11300F037C0813091F028F08230D9F0833029F173
S113010008952AB381E090E002C0880F991F6A9590
S1130110E2F7809582238ABB089527B381E090E0BB
S113012002C0880F991F6A95E2F78095822387BBE6
S1130130089524B381E090E002C0880F991F6A9566
S1130140E2F78095822384BB089521B381E090E097
S113015002C0880F991F6A95E2F78095822381BBBC
S113016008954130A1F5813089F028F08230C9F03A
S1130170833011F108952BB381E090E002C0880F21
S1130180991F6A95E2F7822B8BBB089528B381E00F
S113019090E002C0880F991F6A95E2F7822B88BB12
S11301A0089525B381E090E002C0880F991F6A95F5
S11301B0E2F7822B85BB089522B381E090E002C070
S11301C0880F991F6A95E2F7822B82BB089541112B
S11301D037C0813091F028F08230D9F0833029F192
S11301E008952BB381E090E002C0880F991F6A95AF
S11301F0E2F7809582238BBB089528B381E090E0D9
S113020002C0880F991F6A95E2F78095822388BB04
S1130210089525B381E090E002C0880F991F6A9584
S1130220E2F78095822385BB089522B381E090E0B4
S113023002C0880F991F6A95E2F78095822382BBDA
S113024008950E94870141E060E080E00E9441003F
S113025041E061E080E00E94410041E062E080E032
S11302600E94410041E060E080E00E94B10040E073
S113027061E080E00E94B10040E062E080E00E9422
S1130280B100DFE009C08D2F0E949E01CF5F01C045
S1130290C0E0C436C0F3D150D111FACF40E060E0E1
S11302A080E00E94B10041E061E080E00E94B10082
S11302B040E062E080E00E94B100D5E009C08D2FEB
S11302C00E949E01CF5F01C0C0E0C436C0F3D1508C
S11302D0D111FACF40E060E080E00E94B10040E03C
S11302E061E080E00E94B10041E062E080E00E94B1
S11302F0B100DAE009C08D2F0E949E01CF5F01C0DA
S1130300C0E0C436C0F3D150D111FACFABCFCF93F4
S1130310C0E006C041E06C2F81E00E944100CF5F45
S1130320C730C0F341E060E083E00E94410041E057
S113033061E083E00E944100CF9108951F93CF9321
S1130340DF93DDEC8D9FD12D11241D2F169516956D
S11303501695110F912F990F990F190F811B182FB3
S1130360D695D695D69541E060E083E00E94B10031
S113037041E061E083E00E94B100C0E012C0E12FDF
S1130380F0E0E05AFF4F408150E00C2E02C055953A
S113039047950A94E2F741706C2F81E00E94B10006
S11303A0CF5FC73060F340E061E083E00E94B100BA
S11303B08FE097E20197F1F700C0000041E060E0B0
S11303C083E00E94B10041E061E083E00E94B1005B
S11303D0C0E012C0ED2FF0E0E05AFF4F408150E042
S11303E00C2E02C0559547950A94E2F741706C2F84
S11303F081E00E94B100CF5FC73060F340E060E06D
S113040083E00E94B1008FE097E20197F1F700C00A
S11104100000DF91CF911F910895F894FFCF63
S10D041E3F065B4F666D7D077F6F9C
S9030000FC
