:100000000C942A000C9434000C9434000C943400AA
:100010000C9434000C9434000C9434000C94340090
:100020000C9434000C9434000C9434000C94340080
:100030000C9434000C9434000C9434000C94340070
:100040000C9434000C9434000C9434000C94340060
:100050000C94340011241FBECFE5D8E0DEBFCDBF25
:100060000E9419020C94CA020C94000087B18064AB
:1000700087B987B18F7787B987B18F7D87B986B107
:10008000806886B986B18E7F86B986B1826086B96E
:1000900086B1846086B9089597B1907E97B997B17B
:1000A0008770982B97B986B1806486B9349BFECF50
:1000B00086B1806186B924B185B190E0982F8827F8
:1000C000822B08954130A1F5813089F028F08230EB
:1000D000C9F0833011F108952AB381E090E002C0A5
:1000E000880F991F6A95E2F7822B8ABB089527B380
:1000F00081E090E002C0880F991F6A95E2F7822B99
:1001000087BB089524B381E090E002C0880F991F57
:100110006A95E2F7822B84BB089521B381E090E0D9
:1001200002C0880F991F6A95E2F7822B81BB089560
:10013000411137C0813091F028F08230D9F08330FE
:1001400029F108952AB381E090E002C0880F991F39
:100150006A95E2F7809582238ABB089527B381E0F0
:1001600090E002C0880F991F6A95E2F7809582237C
:1001700087BB089524B381E090E002C0880F991FE7
:100180006A95E2F78095822384BB089521B381E0CC
:1001900090E002C0880F991F6A95E2F7809582234C
:1001A00081BB08954130A1F5813089F028F082307B
:1001B000C9F0833011F108952BB381E090E002C0C3
:1001C000880F991F6A95E2F7822B8BBB089528B39D
:1001D00081E090E002C0880F991F6A95E2F7822BB8
:1001E00088BB089525B381E090E002C0880F991F75
:1001F0006A95E2F7822B85BB089522B381E090E0F7
:1002000002C0880F991F6A95E2F7822B82BB08957E
:10021000411137C0813091F028F08230D9F083301D
:1002200029F108952BB381E090E002C0880F991F57
:100230006A95E2F7809582238BBB089528B381E00D
:1002400090E002C0880F991F6A95E2F7809582239B
:1002500088BB089525B381E090E002C0880F991F04
:100260006A95E2F78095822385BB089522B381E0E9
:1002700090E002C0880F991F6A95E2F7809582236B
:1002800082BB0895813041F028F0823039F083300C
:1002900039F008956ABB089567BB089564BB08955B
:1002A00061BB0895813041F028F0823039F083300D
:1002B00039F008956BBB089568BB089565BB089538
:1002C00062BB0895CF93C82F40E060E083E00E94B6
:1002D000D2006C2F81E00E94520141E061E083E096
:1002E0000E94D2008FE99FE00197F1F700C0000063
:1002F00040E061E083E00E94D200CF910895CF9367
:10030000C82F41E060E083E00E94D2006C2F81E0C2
:100310000E94520141E061E083E00E94D2008FE937
:100320009FE00197F1F700C0000040E061E083E04A
:100330000E94D200CF9108956FEF81E00E944201A8
:1003400041E060E083E00E94620041E061E083E020
:100350000E9462002FEF89EF90E021508040904092
:10036000E1F700C0000088E30E9462018CE00E9477
:10037000620181E00E94620108951F93CF93DF9391
:1003800000D000D000D0CDB7DEB7AC01892BA1F5ED
:1003900080E30E947F0143C09A01ADECBCEC0E9457
:1003A000BB029695879596958795969587959C011E
:1003B000220F331F880F991F880F991F880F991FCD
:1003C000820F931F9A01281B390BC901E1E0F0E06D
:1003D000EC0FFD1FE10FF11D17FDFA95805D808385
:1003E0009A010E94BB02AC015695479556954795D8
:1003F000569547951F5F01C010E04115510561F604
:100400000CC01150E1E0F0E0EC0FFD1FE10FF11D19
:1004100017FDFA9580810E947F01111694F32696AC
:100420000FB6F894DEBF0FBECDBFDF91CF911F9105
:1004300008956FEF82E00E94420140E060E080E0BA
:100440000E9462000E949C010E94360080E00E948F
:100450004C00EC019C01A4E6B0E00E94BB022FEF2F
:1004600033E040E050E00E94990269017A01DA012C
:10047000C901880F991FAA1FBB1F880F991FAA1FA8
:10048000BB1FBC01CD01660F771F881F991F24E693
:1004900030E040E050E00E94990280E060E00AC055
:1004A00041E050E0082E02C0440F551F0A94E2F7C5
:1004B000642B8F5F8217A0F382E00E94520181E0DB
:1004C0000E94620181E40E947F0184E40E947F0116
:1004D00083E40E947F018AE30E947F0180E20E9400
:1004E0007F01CE010E94BD0180EC0E94620180E587
:1004F0000E947F0185E60E947F0182E70E947F01C2
:1005000083E60E947F018AE30E947F0180E20E94CD
:100510007F01C6010E94BD0185E20E947F012FEF8D
:1005200081EE94E0215080409040E1F700C000004F
:100530008DCFA1E21A2EAA1BBB1BFD010DC0AA1F65
:10054000BB1FEE1FFF1FA217B307E407F50720F03C
:10055000A21BB30BE40BF50B661F771F881F991FB7
:100560001A9469F760957095809590959B01AC0100
:10057000BD01CF010895A29FB001B39FC001A39F09
:10058000700D811D1124911DB29F700D811D1124CC
:08059000911D0895F894FFCFBE
:00000001FF
